:0400000007EF00F016
:0A00080001820EED03F05DEF05F03C
:10060000002D2D2D003C2D2D002D2D3E00494E445A
:100610000052504D00535000475200000600F2A413
:1006200014EF03F016EF03F091EF03F0080ED62459
:10063000D66E000ED720D76E154A162A210E151831
:1006400007E14E0E1618D8A428EF03F02AEF03F0A6
:1006500090EF03F0166A000E156E1704D8A433EF5E
:1006600003F035EF03F056EF03F081A03AEF03F00B
:100670003EEF03F0026A022A3FEF03F0026A815064
:100680000218FE0B0218816E81A249EF03F04DEFB4
:1006900003F0026A022A4EEF03F0026A024681501A
:1006A0000218FD0B0218816E90EF03F0020E17186E
:1006B000D8A45DEF03F05FEF03F084EF03F081ACAB
:1006C00064EF03F068EF03F0026A022A69EF03F0B7
:1006D000026A023A0246024681500218BF0B021813
:1006E000816E81AE76EF03F07AEF03F0026A022AA0
:1006F0007BEF03F0026A02320232815002187F0B54
:100700000218816E90EF03F01750D8A48AEF03F01F
:100710008CEF03F090EF03F081908192819C819E99
:10072000F294019211001F0E0B6E190E0C6E210E29
:100730000D6E3BEC04F02150190FD96EDA6ADF6AB6
:10074000100E1F182010D8A4A8EF03F0AAEF03F092
:10075000B2EF03F0190E086E21C009F027EC05F086
:10076000E6EF03F0200E1F182010D8A4BAEF03F014
:10077000BCEF03F0C4EF03F0190E086E21C009F0BE
:100780004BEC05F0E6EF03F0300E1F182010D8A454
:10079000CCEF03F0CEEF03F0D6EF03F0190E086EA6
:1007A00021C009F039EC05F0E6EF03F0500E1F18F8
:1007B0002010D8A4DEEF03F0E0EF03F0E6EF03F043
:1007C000190E086E21C009F0E7EC03F012000D0EBF
:1007D000056E0550D8A4060E066E8C0E076E7FECD3
:1007E00004F00850D96EDA6ADE04D8A4FAEF03F0F8
:1007F000FCEF03F00AEF04F0010E176E050E056E14
:100800000550D8A4060E066ECC0E076E7FEC04F0E1
:100810003AEF04F00850D96EDA6A020EDE18D8A456
:1008200014EF04F016EF04F024EF04F0020E176E3C
:10083000090E056E0550D8A4060E066ECC0E076E86
:100840007FEC04F03AEF04F00850D96EDA6ADF501A
:10085000D8A42DEF04F02FEF04F03AEF04F0176A5C
:10086000010E056E0550D8A4060E066ECC0E076E5E
:100870007FEC04F0120060AE40EF04F042EF04F0B1
:100880007EEF04F0D3EC04F00B50D96EDA6A03C0AB
:10089000DEFF04C0DDFF0D50D96EDA6A65CFDFFFE1
:1008A000660E116E0F0E126E146A000E136E67EF55
:1008B00004F013501124D96E14501220DA6E0C502B
:1008C0001324E16EE26ADFCFE7FF134A142A0D50CA
:1008D000D96EDA6ADF500E6E0F6A0E50135C145038
:1008E000800A106E0F50800A1058D8A07AEF04F0DA
:1008F0007CEF04F059EF04F0609EA4901200000E0B
:10090000036E0750F0EC04F09CEF04F0010E036E50
:1009100005C0F6FF06C0F7FFF86A050EF76403D0BE
:100920000800F55005D0F6CFE9FFF7CFEAFFEF500A
:10093000F0EC04F0054A062A05C0F6FF06C0F7FFF2
:10094000F86A050EF76403D00800F55005D0F6CF1D
:10095000E9FFF7CFEAFFEF500009D8A4B2EF04F0A7
:10096000B4EF04F086EF04F01200939493861F0E08
:100970006F166F8E800E6E18D8A4C1EF04F0C3EF0F
:1009800004F0BAEF04F0776AE10E706E1B0E716E20
:10099000030E726E0D01D46B1F0E6F166F50606ADE
:1009A000608A608C12006150056E066AD890053628
:1009B0000636D89005360636D890053606366238A3
:1009C000E842070B070B076E086A05500710096E0F
:1009D000065008100A6E09C003F00AC004F01200A5
:1009E000046E03B0F6EF04F0F9EF04F08282FAEF40
:1009F00004F0829204C083FF82848294958E828068
:100A000082928284829483BE08EF05F00AEF05F09B
:100A100001EF05F08290959E1200956A9450F80BB4
:100A2000946E8290000E036E020EF0EC04F0000E45
:100A3000036E380EF0EC04F0000E036E0C0EF0ECBA
:100A400004F0000E036E010EF0EC04F01200150E1F
:100A5000056E0550D8A4060E066E800E076E7FEC5C
:100A600004F008C005F0066AC00E076E7FEC04F0C3
:100A70001200110E056E0550D8A4060E066E880EE3
:100A8000076E7FEC04F008C005F0066AC80E076E1A
:100A90007FEC04F01200180E056E0550D8A4060E67
:100AA000066E840E076E7FEC04F008C005F0066A3F
:100AB000C40E076E7FEC04F0120000EE15F00D0E70
:100AC000EE6AE806FDE101900192000EF86E000169
:100AD0007FEF05F00DEC05F0B5EC04F087EC05F0C8
:100AE000F28CF28E75EC05F01200D58CD59AD58E6D
:100AF000D586D76A060ED66EF294F28A12006AEC98
:100B000005F093EC03F081EF05F007EF00F0080E1D
:060B1000936E816A1200E1
:00000001FF
