:04000000FEEF17F008
:100600000000040E6CEC05F001C008F002C009F017
:100610000A6A0B6A700E0C6E170E0D6E000E0E6ECF
:10062000000E0F6E37EC05F008C014F009C015F08D
:100630000AC016F00BC017F0FF0E186E030E196EED
:10064000000E1A6E000E1B6E35EC04F014C02DF077
:1006500015C02EF02DC001F02EC002F0030E046E66
:10066000E80E036E7EEC03F00150300F2F6E046A2B
:10067000640E036E2DC001F02EC002F07EEC03F07C
:1006800001C009F002C00AF00C6A0A0E0B6EDEEC23
:1006900003F00950300F306E046A0A0E036E2DC04D
:1006A00001F02EC002F07EEC03F001C009F002C0A0
:1006B0000AF00C6A0A0E0B6EDEEC03F00950300FE4
:1006C000316E2DC009F02EC00AF00C6A0A0E0B6EB6
:1006D000DEEC03F00950300F326E066A300E056E04
:1006E0002F0E076E040E086E00EC05F0D00E216E82
:1006F000CA0EE82EFED7212EFCD71200066A04BED1
:1007000086EF03F084EF03F08CEF03F0036C041E1C
:10071000D8B0042A010E066E02BE93EF03F091EFEB
:1007200003F099EF03F0016C021ED8B0022A010E0B
:10073000061A086A000E076E03500410D8B4A3EF1F
:1007400003F0A5EF03F0CDEF03F0010E056EADEF62
:1007500003F0D89003360436052A04AEB2EF03F056
:10076000B4EF03F0A9EF03F0D89007360836035032
:10077000015C04500258D8A0C0EF03F0C2EF03F0B0
:10078000C7EF03F00350015E0450025A0780D8906F
:1007900004320332052EB4EF03F00650D8B4D3EF81
:1007A00003F0D5EF03F0D9EF03F0076C081ED8B0C3
:1007B000082A07C001F008C002F012000E6A0ABE43
:1007C000E6EF03F0E4EF03F0ECEF03F0096C0A1E30
:1007D000D8B00A2A010E0E6E0CBEF3EF03F0F1EF53
:1007E00003F0F7EF03F00B6C0C1ED8B00C2A0B5083
:1007F0000C10D8B4FEEF03F000EF04F024EF04F087
:10080000010E0D6E08EF04F0D8900B360C360D2A51
:100810000CAE0DEF04F00FEF04F004EF04F00B50FA
:10082000095C0C500A58D8A018EF04F01AEF04F035
:100830001EEF04F00B50095E0C500A5AD8900C328F
:100840000B320D2E0FEF04F00E50D8B42AEF04F047
:100850002CEF04F030EF04F0096C0A1ED8B00A2A1D
:1008600009C009F00AC00AF01200000E1C6E000E4A
:100870001D6E000E1E6E000E1F6E185019101A10FD
:100880001B10D8B446EF04F048EF04F07EEF04F0FC
:10089000010E206E52EF04F0D890183619361A3631
:1008A0001B36202A1BAE57EF04F059EF04F04CEF33
:1008B00004F0D8901C361D361E361F361850145CB6
:1008C000195015581A5016581B501758D8A06BEFCE
:1008D00004F06DEF04F076EF04F01850145E195038
:1008E000155A1A50165A1B50175A1C80D8901B3292
:1008F0001A3219321832202E59EF04F01CC014F0AD
:100900001DC015F01EC016F01FC017F01200010E1A
:10091000C6EC04F0106E1050116E126A0E0E111813
:100920001210D8A496EF04F098EF04F09CEF04F0B6
:10093000010E336EB5EF04F00B0E11181210D8A48F
:10094000A4EF04F0A6EF04F0AAEF04F0020E336E59
:10095000B5EF04F00D0E11181210D8A4B2EF04F088
:10096000B4EF04F0B5EF04F0336A066A500E056E7A
:10097000330E076E010E086E00EC05F0D00E106EFF
:10098000CA0EE82EFED7102EFCD71200016E01040D
:10099000D8A4CDEF04F0CFEF04F0F4EF04F08250D0
:1009A0000F0B0F0AD8B4D7EF04F0D9EF04F0E6EF3D
:1009B00004F02C50D8B4DFEF04F0E1EF04F0E6EFE0
:1009C00004F02C6A82500F0BFFEF04F082500F0BE3
:1009D0000F0AD8A4EEEF04F0F0EF04F0FEEF04F0FD
:1009E000010E2C6EFEEF04F00150D8A4FAEF04F0D3
:1009F000FCEF04F0FEEF04F0E2EF04F0FF0E120053
:100A00000F01436B446B05C001F006C002F0ADEC72
:100A100005F008C045FF460E0C6E0F0E0D6E0F6AF6
:100A2000000E0E6E22EF05F007500E24D96EDA6A22
:100A30000E500C24E16E0F500D20E26EDFCFE7FF69
:100A40000E4A0F2A0850096E0A6A09500E5C0F50B0
:100A5000800A0B6E0A50800A0B58D8A032EF05F0BE
:100A600034EF05F014EF05F00F0140871200000E7F
:100A7000106E000E116E000E126E000E136E08A0A6
:100A800044EF05F046EF05F04EEF05F00C50102650
:100A90000D5011220E5012220F501322D8900C36F6
:100AA0000D360E360F36D8900B320A320932083224
:100AB000085009100A100B10D8A461EF05F063EF7D
:100AC00005F03FEF05F010C008F011C009F012C0AA
:100AD0000AF013C00BF01200076E07C003F0D890A5
:100AE0000336D8900336C250C30B0310C26EC282C5
:100AF000C2B27DEF05F07FEF05F078EF05F0C3504F
:100B0000C4CF03F0046A03C004F0036A0310056E47
:100B10000450066E05C001F006C002F01200939466
:100B200093861F0E6F166F8E800E6E18D8A49BEFE3
:100B300005F09DEF05F094EF05F0776AE10E706E19
:100B40001B0E716E030E726E0D01D46B1F0E6F16AD
:100B50006F50606A608A608C120001C003F0070E5B
:100B60000316050E046ED8900336042EB3EF05F07D
:100B700003500F01426F01C003F002C004F0D8908F
:100B800004320332D89004320332D8900432033254
:100B90000350416F1200060EF66E0C0EF76E000E3B
:100BA000F86E00EE22F010EE0BF00900F5CFEEFF2C
:100BB000E550E150FAE100EE2DF0070EEE6AE8068E
:100BC000FDE10001F2EF05F0C08EC09AC088C0962A
:100BD000C090C082C094C292C19AC198C46AC36ACC
:100BE000C2801200FCEC05F001EC03F087EC04F08D
:100BF000F4EF05F0FEEF17F0E4EC05F009EC06F079
:100C00008FEC05F01200E721CB6B2D6EEE23EF6F1A
:010C100001E2
:080C120094500F09946E1200CA
:042FFC00CBEF05F022
:00000001FF
